:020000040000FA
:040000001CEF00F001
:100008001182FACF05F0FBCF06F0F2AC0BD0A3B407
:10001800A4A403D051EC00F005D09DB09EA002D05E
:100028003AEC00F006C0FBFF05C0FAFF1192110080
:10003800ACEF00F0000EAA6E000ECF6E000ECE6E72
:10004800CE50CFCF09F00A6A09C00AF0096A091030
:100058000F6E0A50106E9E909D80940E076E010ED2
:10006800086EBEEC00F0010ECD6E12009E900FC01F
:1000780001F010C002F08AEC00F00D500E10D8B458
:10008800120001D812000500FA6E0D50FD6E0E50D8
:10009800FE6EF850FF6EFA501200A49451CF03F090
:1000A80052CF04F003C001F004C002F001D81200DE
:1000B8000500FA6E0B50FD6E0C50FE6EF850FF6E88
:1000C800FA501200000E896E000E8A6E000E8B6EBA
:1000D800AF0E926E936894681F0E0F015D6F070E46
:1000E8005C6F000E5B6FF18E1200050E0F01506FF2
:1000F800000E516F000E526F660E076E010E086EED
:10010800C3EC00F09992A494A3841200CDA407D064
:10011800CD900250CF6E01C0CEFFCD8012000250AC
:10012800CF6E01C0CEFF1200C8EC00F066EC00F004
:10013800A3EC00F079EC00F01EEC00F01200600E69
:10014800D36E000ED26E000E9B6E000E9A6E1200D9
:1001580011901192000EF86E0001B9EF00F080BC0A
:1001680002D0808C1200809C120098EC00F0F28E75
:10017800F28CFFD707C00DF008C00EF0120007C0C0
:0E0188000BF008C00CF01200D09E1200120006
:020000040020DA
:08000000FFFFFFFFFFFFFFFF00
:020000040030CA
:0E00000015087F7CFF8991FF0FC00FE00F40B5
:00000001FF
